:020000022000DC
:106000000000012035E9020075E9020077E902008D
:1060100079E902007BE902007DE90200000000004E
:10602000000000000000000000000000390E030026
:1060300081E9020000000000590E030085E902001A
:1060400087E9020087E90200ED1B030087E90200EF
:1060500087E9020087E9020087E9020087E9020078
:1060600087E9020087E9020087E9020087E9020068
:1060700087E9020087E9020087E9020087E9020058
:1060800087E90200910B030087E9020087E902001B
:1060900087E9020087E902008183020087E90200A4
:1060A00087E9020087E9020087E9020087E9020028
:1060B00087E9020087E902000000000000000000FC
:1060C00087E9020087E9020087E9020087E9020008
:1060D00087E9020087E9020087E90200000000006A
:1060E00000000000000000000000000000000000B0
:1060F00000000000000000000000000000000000A0
:10610000000000000000000000000000000000008F
:10611000000000000000000000000000000000007F
:10612000000000000000000000000000000000006F
:10613000000000000000000000000000000000005F
:10614000000000000000000000000000000000004F
:10615000000000000000000000000000000000003F
:10616000000000000000000000000000000000002F
:10617000000000000000000000000000000000001F
:10618000000000000000000000000000000000000F
:1061900000000000000000000000000000000000FF
:1061A00000000000000000000000000000000000EF
:1061B00000000000000000000000000000000000DF
:1061C00000000000000000000000000000000000CF
:1061D00000000000000000000000000000000000BF
:1061E00000000000000000000000000000000000AF
:1061F000000000000000000000000000000000009F
:10620000F1EE103A43F08073E1EE103A704700BFB0
:1062100010B5054C237833B9044B13B10448AFF3E0
:1062200000800123237010BD4838002000000000CA
:10623000E460030008B5034B1BB103490348AFF307
:10624000008008BD000000004C380020E46003001E
:10625000154B002B08BF134B9D46A3F5803A002138
:106260008B460F461348144A121A0CF041F90F4B93
:10627000002B00D098470E4B002B00D098470020F1
:10628000002104000D000D48002802D00C48AFF397
:1062900000800CF0C3F8200029000BF06BFD0CF01F
:1062A00097F800BF00000800000001200000000077
:1062B0000000000048380020B8570020000000000F
:1062C0000000000008B511200BF08EF9BDE8084071
:1062D0004FF47A7008F058BB38B50A4D0A4C28467E
:1062E00002F078F9094A0A4928460CF039F80949B8
:1062F00020460BF0C7FC2046044A0749BDE8384059
:106300000CF02EB864380020C4380020003600207D
:10631000D563020010580300B91C030010B5264CC9
:1063200084B04FF4E13120460BF0A2FA94F8A33088
:1063300033B90A2008F028FB94F8A330002BF8D0DA
:106340001E4901A80BF09EFC1D4901A80BF0BCFCE6
:10635000014619480BF09AF901A80BF0ADFC002298
:106360000121184801F0F6FD0421164801F08AFFCA
:106370001549144801F05EFF144802F04FF9062158
:10638000134800F083F8124800F068F8104800F055
:1063900037F80F48012100F0ABF8F4220C48202117
:1063A00000F0A2F80A481E2100F09CF800210848DD
:1063B00000F0FEF804B010BDA050002020580300EB
:1063C000C4380020E838002040580300643800201A
:1063D000E83A002010B5044B044640F8103B00F0AA
:1063E00017FA204610BD00BF5059030072DF7047F6
:1063F00073DF704777DF70470022C2770270704703
:10640000F0B589B0064620221348694601F026FF00
:10641000F37FC2181D2A0CDDC3F11D04E4B2E2189B
:106420001D2A4FF00005D8BF082705DD284609B012
:10643000F0BD044601250927F218601CF054694696
:106440005770901C22460CF02BF8F27F0232144455
:106450002846F47709B0F0BDE838002010B50446AE
:10646000094801F047FFE37F1C2B01DD002010BD30
:10647000E2180221E1540A2390705370E37F033342
:10648000E377012010BD00BFE8380020C27F1C2A3E
:1064900001DD0020704710B403469C180220985478
:1064A0000120A1706070DA7F0332DA775DF8044B67
:1064B000704700BF10B4084A084C09490262002224
:1064C000C0E90A41C0E90C225DF8044B0270C277B2
:1064D00042628263704700BFFF0101002000F400A8
:1064E00020001E00C1857047018581854285704767
:1064F00080F82210704700BFF0B5154605EB850304
:10650000274A89B0044603EB830300200E469B0014
:1065100011680290CDE90460ADF8143094F8213090
:106520008DF80830CB07CDE90600039009D41D494A
:106530001D4BC87FE77F988101201C6099609F8078
:106540001060194902AA04F12000FFF74FFF10B1B3
:10655000002009B0F0BD94F820101448019101F01A
:10656000C9FE019902460120FFF744FF0028EFD140
:1065700094F820000121FFF73BFF0028E8D10B48E9
:1065800001F00EFF628EA68595424FF0010094BF88
:10659000521B921A628684F8230009B0F0BD00BF36
:1065A000D0380020243B0020D4380020E8380020D8
:1065B000F0B5002361F30F032D4D044661F31F4333
:1065C00089B00363FA21284601F098FEE68D294937
:1065D000278D0868049706EB860303EB83030022EC
:1065E0009B000592ADF8143094F8213002928DF89A
:1065F0000830C307CDE9062203920BD41E4BE27F7D
:1066000095F85B029A8005F50F7501221C609D606C
:1066100098810A60184902AA04F12000FFF7E6FEFB
:1066200010B1002009B0F0BD94F82010104801917D
:1066300001F060FE019902460120FFF7DBFE002811
:10664000EFD194F820000121FFF7D2FE0028E8D115
:10665000074801F0A5FE638EA7859E424FF001001A
:1066600094BF9B1BDB1A638684F8230009B0F0BD3E
:10667000E8380020D0380020D438002030B50B880E
:106680008D88112B85B0044605D0262B33D0102BD6
:1066900025D005B030BD436AEB40DB07F9D52E4865
:1066A00001F04EF80028F4D1636A94F82310012217
:1066B00002FA05F523EA050363620029E9D194F89B
:1066C0002230002BE5D0238E24486386FA2101F086
:1066D00015FEE28D218D2046FFF70EFFD9E7CB7B1B
:1066E000012BD6D1426A03FA05F515430023456212
:1066F00080F82330CDE70B7A012BCAD1002380F834
:1067000023304FF4FA71154801F0F8FD238E5BB188
:10671000658E95B1A36B0BB19847658E618D2A4646
:106720002046FFF7E9FEB4E7A36B03B19847618DFC
:1067300000222046FFF7E0FEABE7084801F044FEE8
:10674000626B002AA5D0009503AB29462846039525
:106750000AF036FE9DE700BF983B0020E838002095
:1067600075DF704710B44FF010144FF44801002249
:10677000C0E90041C0E902225DF8044B704700BF48
:10678000014800F0E1BD00BFB83B0020F8B500258E
:106790000D4F2E4601E0142D14D0A9B2384601F059
:1067A000E7FD013504460028F5D000F02DFC002857
:1067B000F1D0204600F02CFC022804BF0136F6B2CE
:1067C000142DEAD13046F8BDE83800200A881F2A87
:1067D00000D0704700B50B4651F8080F83B04968E8
:1067E0006A4603C29888BDF80030ADF802306946A9
:1067F000FFF7B6FF03B05DF804FB00BFAADF7047E8
:10680000ABDF7047ACDF7047ADDF7047B0DF70477C
:10681000704700BF10B504460BF0F4FA204610BDD7
:1068200070B5594B04461B680361061D96B030468F
:1068300001F04AF994F8263013F0320208BF84F8C8
:10684000272013F00C0208BF84F8282013F030032F
:106850007AD10FAD0F93C5E90133C5E9033394F83D
:10686000262094F82710AB618DF83C200022ADF86B
:1068700009209DF80A20A0691493012363F34202C2
:106880008DF808108DF80A2008B1037853BBA37F58
:1068900013B104F11E03129394F8292005960023E6
:1068A000D207CDE9073354BFE389E089ADF81C3046
:1068B00058BF184604F127010691ADF8200029467B
:1068C00004F12A036569099505AA0020FFF796FFE0
:1068D000054620B9637F83B9237B002B4DD0284622
:1068E00016B070BD10900CF0D7FC02AB80B2ADF8C2
:1068F0004400ADF846001393C9E7ADF80D009DF8CC
:106900000E30224A0C90012161F34203526894F840
:10691000271004928DF80E3004AA02238DF80C1073
:1069200003A90D90ADF83030ADF834300A9204F17F
:106930001C030B910DF102020AA90E93FFF760FFF1
:106940000028C9D00546CAE7104B94F827101B78D9
:106950008DF804300FAD022200238DF8062094F844
:1069600026200F938DF80510C5E90133C5E90333DF
:10697000AB618DF83C2001AB78E72146044800F07C
:106980009FFE284616B070BDE4380020485803002A
:10699000E83800202DE9F0410B888E88502B8AB012
:1069A0000C46054609D0512B04D18B79012B18D008
:1069B000022B26D00AB0BDE8F081CB88428D9A42E6
:1069C00035D0EA8D9A42F5D1EB6C002BF2D095F8D8
:1069D0003C20648A92077ED4224629463046984756
:1069E000E8E7036C002BE5D090F83C20520701F15A
:1069F000080700F192803A46294630469847A37925
:106A0000D6E7A27B042A4AD0062A20D0012AD1D177
:106A10006B6C002BCED095F83C20170704F10804CE
:106A200000F1A7802246294630469847C2E7876C86
:106A3000002FC6D090F83C30D9075CD404F112087E
:106A4000238A424629463046B847E388B9E76A6B4D
:106A5000002AAFD0002202A93046CDE90222CDE9BA
:106A60000422ADF80C208DF80830FFF7CFFEAC6C97
:106A70004CB195F83C30D80700F19C806B8F6A6B65
:106A800030462946A0476C6B09F012FD01282046CC
:106A90007FD007F095FF0023C5E90D338AE7686BC7
:106AA000002879D0278A628A298F07EB020C0023FD
:106AB0004FF0020E8C45CDE90633CDE908338DF851
:106AC00018E03ADD40F20913ADF81C3006A9304653
:106AD000FFF79CFE6EE7032000211A46009006ABEC
:106AE0000846CDE9066508940AF06AFC00287FF4A0
:106AF00061AFEB6C70E7218A069604F1120804235B
:106B000000933A46404606ABCDE9088107950AF066
:106B100057FC002899D1AF6C92E703211A460091E7
:106B200006AB08213846CDE9066508970AF048FC0F
:106B300000287FF464AF2B6C5DE79DF81EC0ADF8B4
:106B40001C3004F114014CF001033844ADF822204C
:106B50008DF81E300991ADF820700BF0A1FC238A4E
:106B6000618A6A8F0B449BB2934238BF13466B878E
:106B7000ACE703211A46009106AB0E212046CDE971
:106B8000066508940AF01CFC00287FF413AF6B6CB8
:106B900048E70BF06FFC7EE74FF480672F8709F022
:106BA00087FC0128384616D007F0F8FE00236863FA
:106BB0006B8777E7686B698F0696042300932246FC
:106BC00006ABCDE9075009910AF0FAFB00287FF4E3
:106BD0005AAFAC6C52E70BF045FCE7E770B483B0FA
:106BE0006D4685E806000446164944F8041B034632
:106BF00095E80300144E84E80500317883F82810E6
:106C000003200022142583F829001846C3E90D2229
:106C1000C3E91022C3E91222DD8183F83C201A73F4
:106C20001A619A619A83C3F81E20C3F8222083F860
:106C300026205A615A85DA621A8683F8271003B033
:106C400070BC704758580300485803000123037371
:106C5000704700BF80F82610704700BFC1817047A1
:106C600041B190F82930C181002262F3000380F81D
:106C70002930704790F82930012262F3000380F830
:106C80002930704710B490F83C3090F829404164A6
:106C9000003918BF012161F3041462F3C30380F8C3
:106CA000294080F83C305DF8044B704751F82A2F9A
:106CB000026049684160704730B5C38985B00A46B3
:106CC000022B28BF0223418DADF8062000240DF1D0
:106CD000060502AA4FF6FF70ADF80830ADF80A407D
:106CE0000395FFF78FFD18B9BDF8080005B030BD5A
:106CF000204605B030BD00BF90F8263013F01003D9
:106D000001D11846704730B5044685B011480D468C
:106D100001F01AFB10B1E18D11B9084605B030BD84
:106D20000DF1060328460024022502AA0393ADF8BC
:106D30000A40ADF80850FFF767FD43F2014398425F
:106D400006D008B99DF8060000F0010005B030BD7E
:106D50002046E3E7E8380020A1DF7047A3DF704753
:106D6000A4DF704700238382704700BF806900F072
:106D7000E3B800BF808A70472DE9F0410B88CE88C8
:106D8000382B86B00C46054606D0392B66D0362BFC
:106D900043D006B0BDE8F08100F11C07002E36D1CB
:106DA0000A8A3846314601F021FD94F80C80B8F18A
:106DB000010F2CD0B8F1040FEBD1A86900F0BCF89A
:106DC00001465C4801F0D4FA00F024F92A8D053818
:106DD00083B2934228BF1346002B00F09A80218A89
:106DE000E289A869AC8A8DF80D600A44696A059148
:106DF0008DF80C80ADF81230ADF81020ADF80E40D3
:106E000000F09AF803A9FFF7A9FF0028C1D038467F
:106E100001F004FD06B0BDE8F081806900F08CF857
:106E20000146444801F0A4FA00F0F4F807466EBBAE
:106E300005F11C06E289304604F1100101F0D6FC90
:106E40002B8D2BB1F81EE38980B20138834255DACD
:106E5000304601F0E3FC06B0BDE8F0810B7B012B6E
:106E60001AD0022B95D1036B002B92D090F83420CE
:106E70008F8892071FD401F11006E2893146284617
:106E8000984761893846FFF76BFF82E705F11C07D9
:106E9000384601F0C3FCBDE7C36A002B3FF479AF6D
:106EA00090F83420D10717D404F11006E289314656
:106EB000284698476DE7C989039004F1100603201E
:106EC0001A46009003AB3046CDE904610AF078FA27
:106ED0000028D6D12B6BD0E7E189039004F110068E
:106EE00003201A46009003AB3046CDE904610AF056
:106EF00067FA00287FF44DAFEB6AD7E7A86900F086
:106F00001BF86A8DA98A92B2FFF726FF00289FD14D
:106F10003FE7AA8AA869ADF80E2040F20511ADF846
:106F20000C10CDE9043300F007F803A9FFF716FFB2
:106F30006DE700BFE83800208088704776DF704733
:106F40007FDF704786DF70478FDF704790DF7047C5
:106F5000B1DF7047B5DF704710B5074B03600446DB
:106F6000C06908F083FB206A08F080FB606A08B102
:106F700008F07CFB204610BD7058030010B5094B8B
:106F800003600446C06908F071FB206A08F06EFBDC
:106F9000606A08B108F06AFB20460AF033FF204619
:106FA00010BD00BF7058030070B50446154D106841
:106FB000A1801721C4F81300256090799588E1809D
:106FC0004FF4D816D179A4F81750012222742273F5
:106FD0006076617318461946A6609DF8105007F058
:106FE0006FFD2946E061284607F06AFD00234FF651
:106FF000FF722062C4E90A33E28163746362A3749E
:10700000204670BD70580300007C7047407C70477C
:10701000407B7047C08870470089704730B451F892
:10702000135F05608C888A798480827130BC7047D8
:107030002DE9F04186B004ACB0F8048016460D4648
:1070400020464FF4285100F025FDCDE900564FF6BB
:10705000FF77012094E80C004146CDE90207034880
:1070600000F0CAF906B0BDE8F08100BFE8380020A2
:1070700008B513218088FFF761FFB0FA80F040095E
:1070800008BD00BFC2898188407B01F00DBC00BFF4
:107090000A46C189407B01F023BC00BF70B50B8854
:1070A000113B96B00C460546462B77D8DFE813F027
:1070B0008400870047008A0076007600760076001C
:1070C000A100B000760076007600760076007600AB
:1070D000BC00C400CA00D0007600760076007600BE
:1070E00076007600760076007600760076007600F0
:1070F00076007600760076007600760076007600E0
:107100007600D300760002017600760076007600E5
:1071100076007600760076007600760076007600BF
:1071200076007600760076007600760076007600AF
:107130007600D600DD007600E3007800F20009F06A
:10714000B7F901284FF0500000F0D78007F026FC77
:10715000E86218B3502200210BF0CAF971496C7B28
:10716000EB6A086800906A46012C0C7914714FF0A4
:1071700000014FF6FF7003F11C04029303F1380382
:10718000CDE90643E88118BF0A46A888059102ABFD
:10719000CDE90311CDE90811FFF7D2FE16B070BD9D
:1071A0008B79002BFAD1406AAB740028F6D01A46CE
:1071B000194607F0B7FCF1E700230374EEE74B89AB
:1071C0000381EBE75022002102A80BF091F9218AFC
:1071D000687B02AA01F084FB034600287BD00023D1
:1071E000A88802A910AAFFF7ADFEBDF81A30EB81FE
:1071F000D4E70B7A002B00F08380EC6A09F058F991
:107200000128204676D007F0DBFB0023EB62C5E7C0
:107210000B7A112B65D1A86A0028BFD000231A462B
:10722000194607F07FFCB9E7002302A98088ADF872
:107230000830FFF789FEB1E70B7A002BAED14B7A0D
:107240000373ABE7002211468088FFF77FFEA5E7B6
:107250000B894381A2E74B89C3809FE700231A462D
:1072600019468088FFF774FE98E7406A0123AB74E3
:107270000028D3D192E7417B2B4801F071F8E388D5
:107280000146994228BF194689B2A888E980FFF7CC
:1072900061FE83E78B79002B80D0002600231A46FD
:1072A0001946E86907F03EFC0136A279F3B29A422A
:1072B000F4D873E78B7A002B3FF470AF00260023DD
:1072C0001A461946286A07F02DFC0136A27AF3B255
:1072D0009A42F4D862E7A8881A461946FFF732FEA8
:1072E0005CE7C2898188407B01F02EFB90B10123CD
:1072F0006B7490E70BF0BEF887E70BF0B3F827E765
:10730000C26A8188538AC38101234374407B01F0A0
:10731000B7FA72E7034602460146A888FFF718FE4F
:10732000E5E700BFE73B0020E838002010B5044641
:10733000043001F0FBF9034B236000232375204642
:1073400010BD00BF0100FFFF017D01B1704710B506
:107350000446043001F0F4F90123237510BD00BF89
:10736000007D70470B88322B10B504D0332B17D01B
:10737000302B08D010BDCB88DBB1041D2046BDE802
:10738000104001F04BBACB88041D002BF6D14B897D
:10739000002BF3D00A3120460A2201F027FAEDE74C
:1073A000CB88002BE9D14A89002AE6D002EB4202C1
:1073B00004E04A89002AE0D002EB82025200041D58
:1073C000023292B20A31204601F010FAD6E700BF2D
:1073D000A0DF704710B5044600F5F87001F0A6F97B
:1073E0002046F82200210BF083F8F822A018002193
:1073F0000BF07EF8204610BD2DE9F04385B0054620
:10740000BDF83800ADF80C00BDF83C00ADF80E003A
:10741000E8461E48BDF8349088E80C000F4600F09E
:10742000A7FF05F5F875064603E0FFF7F5FD07F041
:10743000ABFA284601F0D8F904463046002CF4D1C6
:107440000121284601F07CF90C994A46284601F0B2
:1074500093F94146384603AAFFF7BAFF30B12846F0
:1074600001F078F9204605B0BDE8F0834FF4FA71D9
:10747000284601F087F920EAE074284601F06AF90D
:10748000A4B2204605B0BDE8F08300BFE838002074
:107490002DE9F04F8F880D8885B08846044639461F
:1074A000864800F065FFA5F11003012B814640F2EC
:1074B000908094F854203AB3002633461633502D6A
:1074C00054F823A069D0512D1AD198F80630B8F895
:1074D00008B0022B53D0BBF1000F11D051466846C3
:1074E000FFF7E4FBBDF800305B4559D0514602A8D8
:1074F000FFF7DCFBBDF80C305B4551D094F854200D
:107500000136F3B29342D9D394F84C31002B00F0FA
:10751000D18004F5A679002604E094F84C310136B8
:10752000B34220DD59F8040FFFF720FCB842F4D134
:10753000382D03D0392D01D0362DEED1B8F80AA060
:10754000BAF1000FE9D0D9F800B05846FFF712FCA5
:107550005045E2D158464146FFF70EFC94F84C31B5
:107560000136B342DEDC112D55D0352D04D1B8F8EB
:107570000A30002B40F08F8005B0BDE8F08F98F8FE
:107580000E30062BA7D1DAF800305046DB684146B2
:1075900098474846FFF73AFDB0E7B8F806B09AE7D3
:1075A000DAF800305046DB68414698474846FFF716
:1075B0002DFD0028A2D0502DA0D1514602A8FFF7E2
:1075C00075FBBDF80C305B4598D14846FFF75AFD76
:1075D00094E72378002B3FF46CAF0026112D33463F
:1075E0000CD004EB83033946586803685B689847FE
:1075F00001362278F3B29A42F3D85AE704EB8303B8
:107600003946586803681B68984701362278F3B2F8
:107610009A42F3D84DE7D3B10026334605E094F8FB
:107620004C210136F3B29A4211D904EB8305D5F807
:107630005001FFF79BFBB842F1D1D5F85001FFF79D
:1076400091FB013694F84C21F3B29A42EDD894F8AC
:10765000F820002A90D000252B4604EB8303D3F8B2
:10766000FC008388BB420AD00135EBB2934283D23F
:1076700004EB8303D3F8FC008388BB42F4D1036896
:107680001B689847013594F8F820EBB29342E4D395
:1076900005B0BDE8F08F04F5F874B8F80C2020466A
:1076A00008F1100101F0A2F8204605B0BDE8F04F46
:1076B00001F0B4B8112D7FF458AFC8E7E8380020C6
:1076C00090F85420272A0CD810B4034602F116046F
:1076D000013280F8542043F8241001205DF8044B57
:1076E00070470020704700BF0378132B06D800EBCB
:1076F00083020133037001205160704700207047FE
:1077000075DF704778DF70477ADF7047054A0346B8
:1077100092E80300002283E80300C3E9022218462E
:10772000704700BF7858030008B5FFF7EDFF08B1B8
:10773000002008BDFFF7E6FFB0FA80F0400908BD61
:10774000F8B500250D4F2E4601E0142D14D0A9B236
:10775000384600F00DFE013504460028F5D0FFF74D
:1077600053FC0028F1D02046FFF752FC012804BF4B
:107770000136F6B2142DEAD13046F8BDE8380020C3
:107780000A88102A00D07047CA7B012A0B46FAD11A
:107790000A8A0188914210B4448804D8A24202D8CF
:1077A0005DF8044B704701465DF8044B9888FFF77D
:1077B000A7BF00BF8ADF704730B40D4CC4621F25DD
:1077C000002250248584A025C0E91122C0E90F229F
:1077D000A0F84650A0F84840006230BC82620286A1
:1077E00080F838204263C264A0F85020704700BF80
:1077F000000180002DE9F04F8FB002AE304686E8E0
:107800000C000C4600F052F9C5B2102D4FD0039E6B
:1078100007220623A16994F81C9001918DF8152088
:107820008DF81430ED080DF114080DF1160A00273B
:10783000B9F1010F0C97CDE90677CDE90877CDE9CD
:107840000A77CDF833700ED998F8000001994B46AD
:107850004A7882420FD00A78D4432344013213F08D
:10786000FF031144F4D108F10108C245E0D1002022
:107870000FB0BDE8F08F11F8024B013CE4B2224694
:1078800006A80AF00DFE0DF1180B1CB9EBE714F079
:10789000FF04E8D058462A4631460AF0F3FD641B3F
:1078A000AB440028F3D101200FB0BDE8F08F0322D4
:1078B0000223AFE7F0B50B888D88103B85B00E46EC
:1078C00004460D2B2CD8DFE803F067072B2B2B2B5E
:1078D0002B2B2B2B2B742B2D836AEB40DB071FD517
:1078E0004C48FEF753FFD8B9A36A94F82C20012620
:1078F00006FA05F523EA0505A5628AB994F82D3044
:1079000073B11F232462A38404F1200104F1440015
:10791000FFF750FF20B9404800F042FD84F82C608A
:1079200005B0F0BD90F92E2091F91B309A422CDC65
:1079300090F8383001F108079BB1002502E0D5B27C
:10794000AB420CD9636B03EBC5030CCB3946204625
:10795000FFF750FF94F838306A1C0028EFD09D42A2
:1079600013D094F82F30002B48D096F82430012BF8
:107970000BD9316A4A78FF2A2FD00A78D0430344C2
:10798000013213F0FF031144F4D104F1200100206F
:10799000FFF710FF05B0F0BDCB7B022BC0D1836A8F
:1079A000012202FA05F52B430022836280F82C2085
:1079B000B6E70B7A012BB3D1002580F82C5016487E
:1079C00000F002FD226C002AAAD0009503AB2946E4
:1079D0002846039509F0F4FCA2E711F8025B6A1E41
:1079E000D2B2022A28BF022203A80AF059FD012DB3
:1079F000CBD0228EBDF80C309A42C6D1E26B002A61
:107A00008ED001230093384603AB2421039709F05D
:107A1000D7FC85E7A83B0020E8380020A8DF7047A6
:107A2000704700BF30B500F1080185B00546084633
:107A3000019100F049F801990DF10E020120FFF7C4
:107A4000EDFF044628B9044B04481D602946FFF7A2
:107A50004BFE204605B030BDE4380020E838002059
:107A600030B482B06D4685E806000446064944F805
:107A7000081B034695E80300002184E8050018462A
:107A8000998002B030BC70478858030062DF7047AD
:107A900063DF7047012200230180827043607047DA
:107AA0000023416083700380704700BF8378012BFF
:107AB00008D0426822B9012B8CBF8020002070477B
:107AC000802070471020704783787BB910B504463A
:107AD000406868B1A11CFFF7D9FF616822461020F9
:107AE000FFF7D6FFB0FA80F0400910BD01207047C3
:107AF000012010BD4BDF704710DF70477CDF7047FF
:107B00007DDF704760DF704769DF704761DF704776
:107B100066DF704767DF7047704700BF132009F0CA
:107B200063BD00BF30B5124C124D83B0D4F80803CA
:107B30004FF0FF3107F01EFC0028F7D06DB101A80F
:107B4000FFF7D8FF0528F1D00028F8D10198831E4F
:107B5000012BF4D806F072FEF1E701A8FFF7CAFF87
:107B60000528E3D001A8FFF7C5FF0528F5D1DDE71B
:107B7000E83800203DE802002DE9F04F2DED028BA2
:107B800089B008F095FC01284FF4FA7000F080816C
:107B900006F004FF0546B14E05F1080308EE103A61
:107BA00006F5587706F5007AD6F804034FF0FF3152
:107BB00007F0E0FB0028F7D04FF4FA730DF116013F
:107BC0002846ADF81630FFF7A1FF10B10528F3D114
:107BD000EAE7B5F80490B9F1130F00F2378106EB2C
:107BE0008903D3F814431CB129462046FFF756FAFF
:107BF0002B88013B1B2B5BD8DFE813F018015A00E0
:107C00005A005A005A005A005A005A005A005A00A4
:107C10005A005A005A005A005A00B5001C005A0077
:107C20005A005A005A005A005A005A005A005A0084
:107C30005A00A300DFF838824FF0000B58F8040F09
:107C400030B1FFF7E1F918B10BF1010B5FFA8BFBD3
:107C5000B845F3D1BBF1000F06D196F810331BB134
:107C60005946132009F0AAFC2046FFF7D1F9012854
:107C700000F0EE80D6F8CC2262B10223CDF8189045
:107C8000002195F808C00093084606ABCDF81CC04B
:107C900009F096FB09F1C40806EB8803586810B197
:107CA00003685B68984706EB88080023C8F804302F
:107CB00029465046FEF7E2FC69482946FFF7FAFDDF
:107CC000B6F812334B452B8800F0B580102B1ED030
:107CD0002CB32046FFF79CF9012803D161482946BF
:107CE000FFF74EFD2046FFF793F902281BD05E48B0
:107CF000FFF736FB00BB59482946FFF7C9FBD6F80A
:107D00006833002B3FF458AF2846984754E7EB7B85
:107D1000012BDDD1AB88A6F81233002CD9D1514804
:107D20002946FFF72DFD51482946FEF74FFD4E48E5
:107D3000FFF716FB0028DED04B482946FFF712FB61
:107D4000D9E7D6F86423002AB2D0CDF818900223E0
:107D5000002195F908C00093084606ABCDF81CC079
:107D600009F02EFBA4E74FF00008D6F80C03CDF87D
:107D700000804346424603213D4C08F075FE54F80E
:107D8000040F30B1FFF740F918B108F101085FFAAC
:107D900088F8BC42F3D196F810336BB1B8F100010A
:107DA00018BF0121132009F009FC96F810331BB10C
:107DB0000121132009F002FC09F1C40806EB880434
:107DC000606820B103685B68984700236360EB7BC1
:107DD000012B0BBF96F8F23296F8F83296F8F34280
:107DE00096F8F9420393302009F0FCFF06EB88086F
:107DF000039B009418EE102A04464946FFF7D4F876
:107E00002046C8F80440FFF703F9012832D0D6F81D
:107E1000C822002A3FF44CAF0123002100930846FA
:107E200006ABCDF8189009F0CBFA41E7002148469F
:107E3000FFF76EFE3CE7102B3FF469AF112B7FF488
:107E400047AF4FF6FF73A6F8123341E70446CFE67B
:107E5000D6F8BC22002A7FF410AF1BE7E8380020D8
:107E6000443B0020983B0020B83B0020A83B00206A
:107E7000F83B0020D6F8B822002A3FF419AF0021C1
:107E8000009006AB0846CDF8189009F099FA0FE774
:107E90000AF0E8FA05467EE638B50446FFF79AFA96
:107EA00004F50070FEF706FB04F50F70FEF7A4FA68
:107EB00004F51770FFF780FC04F52C70FFF726FC23
:107EC00004F53070FEF74EFC04F53470FFF72EFA1F
:107ED0001B481C491C4AC4F8F4224FF44063002597
:107EE000C4F8E83240F20113C4E9BB01A4F8F83247
:107EF0002946A4F8FA5204F5457050220AF0F8FA1F
:107F0000C4F8FF5284F80353D4E9BF304FF6FF7230
:107F10000E49A4F812230E4AC4F80453014003F09A
:107F20000E430A4343F04453C4E9BF320121C4E97C
:107F3000D955C4E9C25584F81013204638BD00BF96
:107F4000010A170003000101170003000000FCFCF8
:107F500007100303F0B5AD4E80F8FC128DB0336905
:107F600080F8FD220446AA49039303A8FFF7C4FD45
:107F700018B1002528460DB0F0BD0990CDE90A00E2
:107F8000A44A94F8ED32049209A901208DF8243016
:107F9000FFF7BAFD0028ECD194F8FD320B90CDE943
:107FA0000900181E18BF012094F8FC528DF8270014
:107FB000049A8DF8263009A940208DF82550FFF746
:107FC000A3FD0028D5D194F8EC120990034661F383
:107FD0000003CDE90A00049A8DF8243009A9A020F5
:107FE000FFF792FD0028C4D1D4F8E8320A900B9034
:107FF000049A099309A9A120FFF786FD0028B8D1AA
:1080000094F8FC32002B40F0B18094F8FD32002B44
:1080100047D00023B4F8F472049A0993022509A901
:108020002320CDE90A338DF82450ADF82670FFF7F0
:108030006BFD00289DD1CDE9090094F8FD72B4F8DC
:10804000F6320B90049A8DF8245009A920208DF85F
:108050002670ADF82830FFF757FD002889D1099028
:10806000CDE90A0094F8F832049A8DF8245009A951
:1080700022208DF82630FFF747FD00287FF479AFE6
:10808000CDE9090094F8F9320B90049A8DF8245048
:1080900009A921208DF82630FFF736FD00287FF44E
:1080A00068AF04A8FFF72EFD00287FF462AFCDE98A
:1080B000070040F0010307A902208DF81C30FFF7EC
:1080C00029FD00287FF455AF04F52C70FFF72CFB39
:1080D000054600283FF44DAF337D4F498DF80830F9
:1080E0000B2202A8FFF70AFD00287FF442AF94F8A4
:1080F000FD32002B40F0848003220021012006F095
:108100009DFCC4F8040300283FF433AF05AB0326FD
:10811000CDE900634149424800234FF4A06207F0D3
:1081200043FC32460021012006F088FCC4F8080315
:1081300000283FF41EAF06ABCDE9006339493A4849
:108140000023C82207F030FC384B4FF480021A603D
:10815000374B00930023184601224FF4807108F03A
:108160002DFCC4F80C0300F065FB03E70990CDE992
:108170000A00B4F8EE32049AADF82630012509A9B8
:1081800023208DF82450FFF7BFFC00287FF4F1AEC8
:10819000CDE9090094F8FC72B4F8F0320B90049A1F
:1081A0008DF8245009A920208DF82670ADF82830CC
:1081B000FFF7AAFC00287FF4DCAE0990CDE90A00A5
:1081C00094F8F232049A8DF8245009A922208DF8EF
:1081D0002630FFF799FC00287FF4CBAECDE90900EB
:1081E00094F8F3320B90049A8DF8245009A92120B9
:1081F0008DF82630FFF788FC00283FF406AFB8E67C
:1082000004F53070FEF7BCFA76E700BFE4580300CF
:10821000197B020000360020D0580300DC58030010
:10822000797B0200E0580300257B020000E100E0BA
:108230001D7B020000B5084B85B01B7D01910846EF
:108240008DF80C300BF028F8019982B203A8FFF7E3
:1082500055FC05B05DF804FBE458030000B583B09D
:1082600008460DF10601ADF80620FFF749FC20B9DC
:108270009DF8060003B05DF804FB002003B05DF834
:1082800004FB00BF30B41A4A0B46054607CA84B047
:1082900001AC03C49DF9040022709842194620D015
:1082A0009DF905308B421CD09DF906308B4218D0C9
:1082B0009DF907308B4214D09DF908308B4210D0C5
:1082C0009DF909308B420CD059B19DF90B308B428E
:1082D00007D09DF90C308B4203D0002004B030BC95
:1082E0007047012085F8FE1204B030BC704700BF13
:1082F000FC58030090F9FE02704700BF30B50546F8
:1083000083B0D0F80C030C4608F0DAFB0D4AA40247
:108310000146A2FB043200230C46D5F80C0300935F
:108320009209042108F0A0FB0CB103B030BD009409
:10833000D5F80C0323462246032108F095FB03B031
:1083400030BD00BFD34D6210132906D800EB810168
:10835000D1F8140308B1FEF757BE0020704700BFE4
:1083600001290CBFB0F8EE02B0F8F402704700BF6C
:1083700013299ABF00EB8101D1F814030020704744
:1083800010B5064C0021D4F8080306F067FED4F8B7
:1083900004030021BDE8104006F060BEE83800206C
:1083A00090F8103303B9704710B582B0D0F80C4381
:1083B00007F0EAFC0023024600932046012108F062
:1083C00053FB02B010BD00BFF0B583B000240546DA
:1083D0002346D0F80C0300942246032108F044FB06
:1083E00005F5447605F5587756F8040F20B1FEF7E9
:1083F0000BFE08B10134E4B2BE42F5D195F810335A
:1084000043B1211E18BF0121132003B0BDE8F04085
:1084100009F0D4B803B0F0BD0148FFF73DBD00BF7F
:10842000E8380020002070473CDF70473DDF704790
:1084300011DF704713DF7047B0DF7047B2DF70475E
:108440002DE9F0419EB0074604A8158814460E4653
:10845000FEF72CFCBDF81030AB4202D01EB0BDE8D8
:10846000F081A379043B022BF8D939465248FFF733
:108470007FFF4FF000080223394605463046CDE91C
:108480000688CDE908888DF81830FEF735FC06A976
:1084900000286AD03846ADF81C80FFF7CDFF247B5A
:1084A000012CDBD1454E41463E2230460AF020F8F1
:1084B00023460DF10E02424938460824ADF80E401D
:1084C000FFF7BCFF68462946FEF7A8FD009830601C
:1084D000BDF804309DF80620B271B3802846FEF73F
:1084E00095FD002849D1354936484FF6FF740B46B3
:1084F00001311B7883EA142383EA131242EA04222F
:1085000083EA131382EA033282EA431381429CB264
:10851000EDD12A4B2C489C870021FDF7E9FF284626
:10852000FEF7A6FDFF210020FFF780FFB12100200C
:10853000FFF77AFF002891D1FFF77AFF00288DD14D
:10854000224B4FF0FF324FF01024C3F88020C3F8C5
:1085500080216069FFF76EFF00287FF47FAF80F312
:108560001488606900F0C4F878E740F2FD133846DB
:10857000ADF81C30FFF760FF70E70AA92846FEF748
:1085800087FD0028AFD01EAB13E903000B0C306051
:10859000B180B37118AC0FCC0D4FC6F807000AAC10
:1085A0007960BA60FB600FCC18360FC694E80700FC
:1085B00086E8070097E700BFE8380020807F0020AA
:1085C000B47F0020BC7F0020E83A002000E100E0FA
:1085D000877F002070B582B06C4605460C49204666
:1085E000FFF75EFA2E4694E806002846FFF738FAB1
:1085F000084B46F8103B20460749FFF751FA94E82C
:1086000006003046FEF7EAFA284602B070BD00BF09
:1086100008590300505903002859030070B5ACB045
:108620000546FFF7FFF918B1044620462CB070BD8F
:1086300018AE2C493046FFF733FA96E8060004A836
:10864000FEF7CCFA04A8FEF701FB04A80421FEF70C
:1086500001FB04A81421FEF701FB04A8FEF7E0F8D3
:10866000044698B905F1100018210190FEF7F2FABE
:1086700001981721FEF7F2FA01981B490122FEF733
:1086800001FB0198FEF7CCF8044628B104A8FEF7D8
:10869000BFF820462CB070BD02AC20461349FFF74E
:1086A000FFF994E806003046FEF798FA3046FEF7E8
:1086B000CDFA02213046FEF7CDFA02213046FEF710
:1086C000CFFA3046FEF7ACF8044618B9012130461F
:1086D000FEF7F2FA3046FEF79BF804A8FEF798F88A
:1086E000D7E700BF1859030041840200385903003E
:1086F000F0B40346186880F308885868FF2464B211
:10870000EFF30585002D01D1A64600472546064614
:1087100021273FBAF0B40024002500260027F0B43A
:10872000F92040B2004700BFF0BC70470022012191
:108730004270C0E901220170C2818281704700BF8E
:1087400010B50446017001B110BD0A2006F0B8F959
:10875000606010BD037810B5044643B100230122C8
:108760006370C4E90133E381A381227010BD4068C6
:1087700006F07CFFF2E700BF002381608281C381A5
:10878000704700BF037870B504460D4693B9406842
:10879000144BA902A3FB013101238909637006F080
:1087A000E9FD90B9237800264FF0FF3566709BB93C
:1087B000284670BD03220021012006F03FF96060C9
:1087C0000028E5D14FF0FF35F2E7E5892378002650
:1087D000ADB26670002BEBD0606806F047FF6660B4
:1087E000284670BDD34D62104078704738B50446B6
:1087F0008089824228BF0246154619B1A06809F057
:108800004FFEA089E389A26815FA83F3401B9BB24F
:108810002A44A081E381A260284638BD406820B187
:1088200000231A46194606F07DB97047B1DF70473C
:10883000B2DF704708B50F4805F0A8FE0E490D4895
:1088400000F06EFA28B10D490A4800F069FA50B1FB
:1088500008BD0949074800F07FFA0849054800F0BB
:108860005FFA0028F4D1BDE808400449014800F04F
:1088700073BA00BF543C00205C59030070590300D8
:1088800070B586B00323144606460D460093104685
:1088900003AB044A05945021CDE9036508F090FD2F
:1088A00006B070BD298A020030B54FF6FF739A42B8
:1088B00087B014460ED002460D46032300210093D4
:1088C00003920846054A03ABCDE9045408F078FD4D
:1088D00007B030BD002007B030BD00BF3D8B0200A7
:1088E00070B5164D164EA0B00C46134601280CBFAD
:1088F00031462946224668461D460AF087FC114B40
:10890000694607A8002200F095FC07A800F02EFD9C
:1089100018B90024204620B070BD044607A800F016
:1089200021FB5028F5D10246294607A800F0ACFBF0
:1089300007A800F003FC204620B070BDA05903003A
:1089400084590300543C0020F0B54FF6FF73A3B0E8
:108950009A4200AF5DD0314B0C463149012818BF17
:10896000194607F108000AF051FC2E4B07F10801E7
:10897000002207F1240000F05DFC07F1240000F064
:10898000F5FC6D4648B9002407F1240000F0D6FB41
:108990002046AD468C37BD46F0BD07F1240000F0FF
:1089A000E1FA061E08DD07F1240000F0ABFB3118E8
:1089B00007F1240000F088FB07F1240000F0D2FA50
:1089C000061E08DD07F1240000F09CFB311807F1BA
:1089D000240000F079FB07F1240000F0C3FA00281E
:1089E000D1DDC31D23F007036E46ADEB030D82B24C
:1089F000694607F124007A6000F046FB204669468C
:108A00007A680323FFF712FFB0FA80F46409B546D1
:108A1000BAE7002420468C37BD46F0BDA0590300BC
:108A200084590300543C0020F0B51446AFB001282F
:108A300004AF0D4607BF528A3B493C49E28D07F11E
:108A400008000AF0E3FB3A4807F108016E4600F01F
:108A500067F900284BD1364B07F1080107F14400B4
:108A6000012200F0E7FB07F1440000F07FFC18B999
:108A7000AC37B546BD46F0BD502107F1440000F0CB
:108A80009FFA5022214607F1440000F0D7F9002355
:108A900029462848FB62C7E90933C7E90C33C7E90F
:108AA0000E333B64FFF764FC07F124012022FEF73C
:108AB000BFFA97F8243003B307F124000AF0ECFB67
:108AC000013082B2C1B207F144007A6000F078FA56
:108AD0007A6807F1240107F1440000F0AFF907F1CB
:108AE000440000F02BFBAC37B546BD46F0BD07F1A6
:108AF00008010F4800F088F9ADE794F8491094F8A0
:108B00004D3094F84E20039194F84A10029194F855
:108B10004B10019194F84C10009107F12400064984
:108B20000AF074FBC8E700BF84590300A059030092
:108B3000543C0020E8380020BC5903002DE9F043E4
:108B4000A3B00C4600AF002103230546164620467D
:108B5000BA1DF980FFF76CFEFB88E84623B98C3715
:108B6000C546BD46BDE8F0830733DB08A8EBC30369
:108B70009D462046BA1D69460323FFF759FEE94684
:108B800004460028EBD1284B28493246012D18BF56
:108B9000194607F108000AF039FB254B07F10801D7
:108BA00007F12400012200F045FB07F1240000F04A
:108BB000DDFB0028D3D0214607F1240000F084FA21
:108BC00007F1240000F0CEF9041E08DD07F12400AF
:108BD00000F098FA211807F1240000F075FA07F167
:108BE000240000F0BFF9041E08DD07F1240000F0A6
:108BF00089FA211807F1240000F066FAFC8807F1D1
:108C00002400E1B200F0DCF92246494607F12400D5
:108C100000F014F907F1240000F090FA8C37C546F3
:108C2000BD46BDE8F08300BFA0590300845903008E
:108C3000543C0020704700BF10B5044609F0E2F82C
:108C4000204610BD38B50A4B04460D46442240F874
:108C50000C3B002109F04CFC0023A560237104F1BA
:108C60005401012006F00EF92065204638BD00BFF2
:108C7000E459030070B504460E46006D4FF0FF3115
:108C800006F078FB257955B98EB1A660314604F11E
:108C90000C0005F0D5FAB0FA80F56D0925710023B6
:108CA000206D1A46194605F03DFF284670BDA6689E
:108CB000002EF4D0EAE700BF70B505464FF0FF3153
:108CC000006D06F057FB2B7993B1002305F10C06DC
:108CD0002B71304605F0C8FB044680B10023286D97
:108CE0001A46194605F01EFFB4FA84F0400970BD1B
:108CF000A96805F10C0004F043FE0446EEE7A968FC
:108D0000304604F03DFE04460028E7D1A96830460D
:108D100005F096FA04460028E0D101232B71DDE727
:108D200030B5044695B00D46006D4FF0FF3106F0AA
:108D300021FB294601AA04F10C0004F0F5FB0023F5
:108D400002461946206D14461A4605F0EBFEB4FAA9
:108D500084F0400915B030BD2DE9F04F83B00B7899
:108D600000AF2F2B78600CBF4C1C0C4606460D46FE
:108D7000006D4FF0FF3106F0FDFA06F10C084FF0E0
:108D8000000917E0ADEB030D68468B4500F8019B29
:108D9000EA4601DD09F0ACFB29465A46504609F087
:108DA0007FFB5146404603F0ADFC08B1113028D19D
:108DB0000134B54620462F210AF048FAA0EB050BF6
:108DC0000BF108036E460021044623F007035A46C0
:108DD0000028D7D12946404603F094FC60B901240D
:108DE0007A680023106D19461A4605F09BFE20464E
:108DF0000C37BD46BDE8F08F113014BF00240124AC
:108E0000EEE70024B546EBE738B504460D46006DA5
:108E10004FF0FF3106F0AEFA294604F10C0004F0E1
:108E2000DBFB002302461946206D14461A4605F066
:108E300079FEB4FA84F0400938BD00BF036970B50B
:108E400004460D46186D4FF0FF31164606F092FAB3
:108E5000237D4BB1002522690023106D19461A4667
:108E600005F060FE284670BD2069A1692A46334698
:108E70000C3003F00DFF20EAE075ECE770B50369F4
:108E8000044682B0186D4FF0FF3106F073FA267D6C
:108E90004EBB2069A1690C3004F038FB05462069FF
:108EA000A1698DF8076001230DF107020C3004F071
:108EB00079FA00282069A169C8BF9DF807602A4691
:108EC00000F10C004FF00003D8BF4FF0FF3604F064
:108ED000EDFA22690023106D19461A4605F022FEAC
:108EE000304602B070BD4FF0FF36F2E738B5036987
:108EF00004464FF0FF31186D06F03CFA237D4BB16C
:108F0000002522690023106D19461A4605F00AFE55
:108F1000284638BD2069A1690C3004F0F9FA0546ED
:108F20002069A1690C3004F0F1FA2D1AE9E700BFBD
:108F3000036910B504464FF0FF31186D06F01AFAB8
:108F4000237D43B122690023106DBDE810401A460D
:108F5000194605F0E7BD2069A1690C3004F0FEF860
:108F6000F0E700BF30B50369044683B0186D4FF0D9
:108F7000FF3106F0FFF9257D55B122690023106D00
:108F800019461A4605F0CEFD4FF0FF3003B030BD54
:108F90002069A1690DF1070201230C3004F002FAE7
:108FA00023692A4604462946186D2B4605F0BAFD6A
:108FB000002CCCBF9DF807004FF0FF3003B030BD50
:108FC00030B50368164A5B6883B093428DF807108A
:108FD0001ED1036904464FF0FF31186D06F0CAF93F
:108FE000237D53B1002522690023106D19461A46CE
:108FF00005F098FD284603B030BD2069A1690C300A
:1090000001230DF1070203F043FE20EAE075EAE7D1
:1090100001220DF1070198470546284603B030BDEF
:109020003D8E020070B504460D4607F041FA012856
:109030004FF02C0020D005F0B1FC0146A16131B108
:1090400023692A4603F10C0003F034FD08B1002027
:1090500070BD0123237528460AF01EF9461C07F04F
:1090600027FA012830460BD005F098FCE06129462C
:109070000AF0F9F8012070BD09F0F4F90146DDE7C6
:1090800009F0F0F9F2E700BF036970B504460D4638
:10909000186D4FF0FF31164606F06CF9237D4BB189
:1090A000002522690023106D19461A4605F03AFD85
:1090B000284670BD2069A1692A4633460C3004F069
:1090C00071F90546EDE700BF38B5036904460D4662
:1090D000186D4FF0FF3106F04DF9237D4BB100259F
:1090E00022690023106D19461A4605F01BFD28461B
:1090F00038BD2069A1692A460C3004F0D7F9C54370
:10910000ED0FEDE738B5036904464FF0FF31186DF8
:1091100006F030F9237D4BB1002522690023106D44
:1091200019461A4605F0FEFC284638BD2069A1699B
:109130000C3004F0EBF90546EFE700BF036970B5AA
:1091400004464FF0FF31186D06F014F9A169D1B152
:109150002069237D0C30FBB103F0D4FCA56907F036
:10916000A7F90128284624D005F02AFCE569002348
:10917000A36135B107F09CF9012828461FD005F0FE
:109180001FFC0023E36122690023106DBDE87040DD
:109190001A46194605F0C6BC04F062F8A56907F046
:1091A00087F90128284607D005F00AFC0023A361AF
:1091B000E9E709F05FF9D9E709F05CF9F6E709F0AA
:1091C00059F9DEE7816951B338B5037D044600697A
:1091D0000C30BBB103F096FCA56907F069F90128D2
:1091E00028461DD005F0ECFBE5690023A36135B1ED
:1091F00007F05EF90128284618D005F0E1FB0023AE
:10920000E36138BD04F02CF8A56907F051F9012895
:10921000284608D005F0D4FB0023A36138BD704771
:1092200009F028F9E0E709F025F9F5E709F022F956
:10923000E5E700BFF0B504460025C4E906554A48F5
:109240002361206084F820504FF47A700E46A060AD
:1092500095B0186D656025754FF0FF31354616469F
:1092600006F088F8A36913B12046FFF7ABFF206929
:1092700001AA0C30294604F057F990B99DF8043042
:10928000112B3FD029462046FFF7CCFE60BB226958
:109290000023106D19461A4605F044FC204615B00F
:1092A000F0BD0230F3D1012EF1D107F001F9012810
:1092B0004FF038004BD005F071FB0146A161002949
:1092C000E5D023692A4603F10C0040F2031303F0B2
:1092D0002DFC06460028DAD12069A1690C30022352
:1092E000324604F0E3F826752F21284609F0EFFFF7
:1092F000034604F1200003B15D1C2946402209F019
:10930000D3FFC4E726B1012EEED140F2031700E0EF
:10931000012707F0CDF801284FF0380013D005F0F1
:109320003DFB0146A1610029B1D022693B4602F113
:109330000C002A4603F0FAFB0028A8D1012E0AD01F
:1093400000232375D0E709F08DF80146EAE709F01C
:1093500089F80146B2E72369A169024603F10C00CE
:10936000022304F0A3F8EBE7F45903008069003806
:1093700018BF0120704700BF2DE9F04F85B0DDE92F
:109380000E4B109F81460D4690461E46002F63D01F
:10939000B8F1000F03D0D8F80030B34249D0D9F863
:1093A00000002B689E422BD04369B4FBF3F203FB11
:1093B0001242BAB9BB4215D8B7FBF3F203FB127ADB
:1093C000A7EB0A0300930393436822461F463146E6
:1093D0005B46B84788B9039B57469B441C44002F03
:1093E000D6D139E00093A21AC5E90062D0F804A0F2
:1093F000AB683146D0470028CAD005B0BDE8F08F31
:1094000069684369A142D0D8CA18A242CDD9A2EB5B
:10941000040ABA45AB6828BFBA46611A5246584694
:109420001944BF1A544409F03BF8D344002FAFD17C
:1094300012E0D8F80430A342B1D8D9F8000082690C
:109440001A44A242ADD9A2EB040ABA45D8F80810D2
:1094500028BFBA46E31AE1E7002005B0BDE8F08F67
:109460002DE9F04F074687B00D4672B30368D1F877
:1094700000B090469A69D1E901104AB3013A01F16E
:1094800001098618A9EB0009441E4FF0010A08E003
:1094900014F8012F9DF817309A4223D1A6423B6859
:1094A00014D01A6A934509EB040320D20DF1170278
:1094B000CDE90032CDF808A05B460022414638468F
:1094C000FFF75AFF0028E3D009DB3B68A8689A69D8
:1094D000FF2109F00DF84FF0FF332B60002007B09B
:1094E000BDE8F08F6FF0330007B0BDE8F08F034B9D
:1094F000034A0448122108F039FF00BF105A030044
:10950000445C0300305A03002DE9F04F87B0DDF8CA
:1095100040A00592002B64D0D0F800908B46D9F87B
:109520001C105C1EA1F108084445074651D3B4FB4A
:10953000F8F0013808F000FFD04500F10200A4EB7C
:109540008003B3FBF8F560D8BAFBF8F0013808F0F7
:10955000F3FE861CAAEB8606B6FBF8F6304608F04A
:10956000EBFEAAEB800006FB180AB54243D9D9F8F6
:109570002020059B4FF004090DF114080BE0012B8E
:1095800045D93A68126A934241D8012101FA04F49C
:109590002D1BB54230D9AC1BB4FA84F495FAA5F171
:1095A000C4F11F04B1FA81F18C4228BF0C469342EA
:1095B0004FEA840132D20091CDE901890022594657
:1095C0003846FFF7D9FE059B0028D8D007B0BDE884
:1095D000F08FD04588BF1346BAFBF8F00CD80025B1
:1095E000B4E711994FF0FF320A60129A18461360DF
:1095F00007B0BDE8F08F059B119A1360129B002005
:10960000C3F800A007B0BDE8F08F0026ADE7064B19
:10961000064A07484FF48F6108F0A8FE054B064A3A
:109620000348122108F0A2FEB05A0300645C030054
:10963000305A0300105A0300445C03002DE9F04F38
:1096400089B00746149C129D8B4692461E46002CFC
:1096500055D0DBF80030B3425CD0013340F0A1803C
:1096600038688269B5FBF2F302FB1353002B4AD131
:10967000A24248D8B4FBF2F302FB13430593E31A6A
:10968000009304938468139B2A463146A047002820
:109690007ED1BAF1000F29D0049B3BB3139B5C1E13
:1096A000049B04EB0309139B05F10108A8EB0308D5
:1096B00007E014F8012F9DF81F309A4266D14C45FF
:1096C00014D03B681A6A964208EB040363D2012265
:1096D00002920DF11F02CDE90032514633460022BD
:1096E0003846FFF749FE0028E3D051DB139A049B6C
:1096F000059C1146194413911D44002CA9D100204A
:1097000009B0BDE8F08FEB1ACBE90063DBF800305D
:10971000B342A2D1DBF80410A9429ED83A689269FC
:109720000A44AA4299D9A2EB0508A045DBF8080033
:1097300028BFA046691A08444246139908F0B0FEB3
:1097400038681399826945444144B5FBF2F302FB42
:109750001353A4EB08041391002B7FF478AFDBF8CC
:1097600000104B1C3FF473AF0092DBE90123D0F8EB
:109770000880C04760B9524659463846FFF770FE28
:1097800000283FF464AF09B0BDE8F08F6FF03300FC
:1097900009B0BDE8F08F064B064A0748122108F0D1
:1097A000E5FD064B064A0448B72108F0DFFD00BF7F
:1097B000105A0300445C0300305A0300DC5A0300D3
:1097C000545C03002DE9F04F0446D2E9003091B01B
:1097D0004FF0010B0A9300230B90069104F114083B
:1097E0000DF128090593236859F8045B1B6A9D4213
:1097F0007BD210230DF1300A0022CDE901A30092A3
:109800002B4641462046FFF7B7FD002839D1059B7E
:10981000002B60D10D9B23F00043132B4FD92268FE
:10982000D26993424BD84FF0FF3309A8102251461A
:10983000099304F037FE0D9B23F00043102B28D032
:10984000CDF81C9010260DF12307994607E001364C
:109850000122394609A804F025FEB14517D0236836
:109860001B6A9D4241D20123CDE9017300962B462C
:10987000002241462046FFF77FFD0028E7D0DDF8B3
:109880001C9010F1340F1AD011B0BDE8F08FDDF844
:109890001C90099B9BB99AE80F000BF0010610AFD2
:1098A00007EB860C069F1026FE603E467D601C3648
:1098B0005CF8185CBD6086E80F0001230593BBF1DE
:1098C000020F0FD1059B002B14BF00206FF0330057
:1098D00011B0BDE8F08F069A0C9BD2699B1A002B41
:1098E00098DAECE74FF0020B7DE7034B034A04489C
:1098F000122108F03BFD00BF105A0300445C030036
:10990000305A03004368013337D02DE9F0438368B0
:10991000013383B0044628D015460E464FF00008A8
:109920004FF001096A462946CDE90089FFF74AFF51
:10993000E0B905F124086B6A591C16D0AF6A7A1C8D
:1099400013D0D6F800C09C4513D0D6F804E0BE452D
:109950000FD073454246294620460AD0BC4508D060
:10996000FFF730FF0028E6D000E0002003B0BDE89C
:10997000F083012003B0BDE8F0830020704700BFF2
:109980002DE9F041D1F820C00C46C9682CF0004305
:10999000043B01F10C069E4284B0054617461FD9D0
:1099A00004F12408102612E0424621462846FFF71B
:1099B00009FF90B9D4F820C0A169E6602CF00043FB
:1099C000043B14311B2BA1614FF0100108D8BCF1EE
:1099D000000FE9DB39606FF0010004B0BDE8F081F1
:1099E0002A46636852F8140B066AB34207F1040072
:1099F0001AD20C26CDE90010029611462846002204
:109A0000FFF7BAFC0028E8D17B79BA79FD79A16922
:109A100004331344E2683A602B441A440B44E26076
:109A2000A36104B0BDE8F081024B034A0348122150
:109A300008F09CFC105A0300445C0300305A0300F9
:109A4000F0B593B000260D46012707A96A46CDE977
:109A500000670446FFF7B6FE064610B121E0831CFE
:109A600022D1109B01331CD0119B013319D010AAB5
:109A700007A92046FFF7A6FEB0B903AA07A920460A
:109A8000FFF77EFF0028EAD19DF91030002B4FF040
:109A90000802294605A8F0DB08F0F4FC0028ECD108
:109AA0000126304613B0F0BD0646304613B0F0BD77
:109AB0002DE9F047164600240122C6E909428246F4
:109AC00088461D4606F124094A4631465046FFF7AE
:109AD00079FE074668B92A4631465046FFF750FFDF
:109AE00050B1831C1FD1736A013302D0B36A0133B2
:109AF000EAD13846BDE8F0872C7904F07004202CB8
:109B0000E9D1AB68D8F80020934208D0E868D8F8CB
:109B10000410884203D08B4201D08242DBD101275E
:109B20003846BDE8F0870746E3E700BF2DE9F04F70
:109B30002DED028B8DB090461C46099340F6220312
:109B40002268C8F804300892D0E90123724EC8F8A0
:109B5000082082468946C8F80C3000F1140B089D95
:109B60003146284609F0C7FB2B46034404463146DC
:109B70001846059309F07FFB0128049000F0B0809F
:109B8000022804D1059B1B782E2B00F0B280DDE962
:109B90000423134408931F4601243146384609F034
:109BA000AAFB07443846314609F065FB78B1022824
:109BB00002D001340744F0E73B782E2BF9D17B78B3
:109BC0002E2BF6D1013CF5D1BB1C0893C7E7059CB1
:109BD000207800285FD0099B1C6098F80430222B65
:109BE00040F08D8008F108031A464946504608EEB9
:109BF000103AFFF7E7FD00284DD1049B013B2344B9
:109C00000793424649465046FFF7BAFE002842D124
:109C100098F8042002F07F03112B01D0222BF0D101
:109C200098F8073004998B42EBD1D8F8003098F8B7
:109C3000051098F80650D9F8047004330B441D44FD
:109C4000049BA3B3059BCDF818800135DDF81C807B
:109C5000ED1A5C1E07E014F8012F9DF82F309A4290
:109C60001ED144451FD0DAF800301A6A974205EB3E
:109C7000040347D2012202920DF12F02CDE90032F6
:109C800059463B4600225046FFF776FB0028E2D0BB
:109C9000DDF8188009DA0DB0BDEC028BBDE8F08F5D
:109CA000DDF81880ADE7DDF8188098F80420130679
:109CB0007FF555AFDAF8043001330CD0DAF808300C
:109CC000013308D018EE101A5046FFF7B9FE0028ED
:109CD0001ED198F8042002F07F0288F804203EE7A5
:109CE0002B5D2E2B7FF453AFDDE90423134408933F
:109CF00035E7059B5B782E2B7FF449AFF4E76FF0D7
:109D00001300C8E7054B064A0648122108F02EFB4F
:109D1000C1DB6FF00100BEE7F85A0300105A0300E0
:109D2000445C0300305A03002DE9F04F8B469DB090
:109D30000BF1040304930BF10C03CDE9053B016B1C
:109D400004464FF001080025D4E90D3010E05A090F
:109D5000E66B01385F1CA063676356F822C003F00E
:109D60001F0208FA02F212EA0C0F00F027813B46AC
:109D70009942ECD1002800F0F2812268E36AD2E92E
:109D800008621944904228BF1046B1FBF6F306FB67
:109D900013112063E162E06B6563D208002108F0D3
:109DA000A7FB6368013300F05781A368013300F01B
:109DB0005381002201230025CDE9082304F1140773
:109DC00001222E46D4F800C0E16ADCF82030206B76
:109DD000591A0E44B6FBF3F503FB1565854210D204
:109DE0006909E26B05F01F0552F8213008FA05F504
:109DF0001D4342F82150DCF82030E16A099A206BBB
:109E0000591A0A44B2FBF3F103FB112383420AD22D
:109E10005809E16B03F01F0351F8202008FA03F3FF
:109E2000134341F8203008AA11A92046FFF7CAFCC5
:109E3000002840F00E810C25149A24E02068129B23
:109E4000006A834280F01A820EA9CDE900210295B2
:109E5000002239462046FFF78FFA002840F0F980AB
:109E60009DF839209DF83A309DF83B6014990432F2
:109E70001A449DF83830324403F070030A44102B22
:109E8000149200F0EB80199B23F00043043B02F195
:109E90000C009842D2D9DDE91A62701CCDE9086243
:109EA00001D0511C8ED1D4F80C904D46B9F1000F61
:109EB00000F0DE81EB69DA0340F156816F69002F13
:109EC00000F05281D4F800A0DAF81C60013F083E8F
:109ED000B742C0F0CF81B7FBF6F0013808F02CFA9A
:109EE0000230A7EB8002B2FBF6F6D4F830E0E16A6C
:109EF0002B69079505F12C000546DAF820207046FD
:109F000004F114098E4601469818A0EB0E0EBEFB14
:109F1000F2F002FB10E28A420AD25709E06B02F02B
:109F20001F0250F8271008FA02F20A4340F82720CF
:109F3000002E00F01781DAF8202006F00107C7F1A3
:109F4000020A93424FEA8A0080F098810BA900220E
:109F5000CDE90110009249462A462046FFF70CFA47
:109F6000002876D10AF1FF3CD4F800A013E0BBFB37
:109F7000F2F302FB13B38B424FF0010014D24FEA0D
:109F8000531EE16B03F01F0351F82E2000FA03F378
:109F9000134341F82E30D4F82CE0DAF820200B9B44
:109FA000216BA2EB0E0B9B446045E0DB1CAB03EB8B
:109FB0008C0C023F5CF8443C3E44A5E72068E26A12
:109FC000016A1344B3FBF1F201FB1233049A42F825
:109FD000043BD4E90C139942049207D10FE0A26B21
:109FE0000133013A8B42C4E90D3208D05D0903F018
:109FF0001F0256F8255008FA02F22A42EFD1DDE995
:10A00000043293427FF49FAEDDF818B0006ADBF8AB
:10A01000043083420BF11C0204F1140180F02E8104
:10A02000042501920022204602950092FFF7A4F930
:10A03000002840F08B80DBF81C304FF0FF32CBE97A
:10A040000922142001331021CBE90730CBF80C1082
:10A0500000201DB0BDE8F08F216B75E6109B002B32
:10A060003FF411AFD4F800A0DAF81C6003F1FF3B15
:10A07000A6F10809CB4570D3BBFBF9F0013808F015
:10A080005BF9861CABEB8606B6FBF9F60F9BE16A23
:10A09000DAF82020D4F830E09818401AB0FBF2F13A
:10A0A00002FB110272450BD24FEA521CE16B02F027
:10A0B0001F0251F82C0008FA02F2024341F82C204A
:10A0C000002E3FF4B9AEDAF8202006F00109C9F1FC
:10A0D000020A93424FEA8A0080F0D0800BA9002246
:10A0E000CDE90110009239462046FFF745F90028D6
:10A0F000AFD10AF1FF3CD4F800A013E0BBFBF2F3B0
:10A1000002FB13B373454FF0010014D24FEA531E04
:10A11000E16B03F01F0351F82E2000FA03F3134301
:10A1200041F82E30E16ADAF820200B9BD4F830E0B9
:10A13000A2EB010B9B446045E0DB1CAB03EB8C0CFA
:10A14000A9F102095CF8443C4E44A5E710F1340F34
:10A150003FF471AF1DB0BDE8F08F064696E76FF093
:10A160001B0076E7079DEB699B037DD52F6A002FC7
:10A170007AD0D4F800A0DAF81C60013F083EB7425C
:10A180007AD3B7FBF6F0013808F0D6F80230A7EB27
:10A190008003B3FBF6F6D4F830E0E16A6B6A07950A
:10A1A00005F12C000546DAF82020704604F1140968
:10A1B0008E4601469818A0EB0E0EBEFBF2F002FB95
:10A1C00010E28A420AD25709E06B02F01F0250F8EF
:10A1D000271008FA02F20A4340F82720002E42D046
:10A1E000DAF8202006F00107C7F1020A93424FEA8D
:10A1F0008A0043D20BA90022CDE901100092494602
:10A200002A462046FFF7B8F800287FF422AF0AF16B
:10A21000FF3CD4F800A013E0BBFBF2F302FB13B346
:10A220008B424FF0010014D24FEA531EE16B03F052
:10A230001F0351F82E2000FA03F3134341F82E3088
:10A24000D4F82CE0DAF820200B9B216BA2EB0E0B4C
:10A250009B446045E0DB1CAB03EB8C0C023F5CF8DD
:10A26000443C3E44A6E7079D2D68002D7FF422AEB6
:10A27000216B68E5002638E600268CE7024B034A8E
:10A280000348122108F072F8105A0300445C0300DE
:10A29000305A03002DE9F04F2DED028B9BB00125C4
:10A2A00004460491A9464FF00008D4E90D31D4F8D2
:10A2B00030C00FE05A09E76B0139581CA163606395
:10A2C00057F8226003F01F0205FA02F2324200F052
:10A2D0002A8103469C45EDD1002900F05282236873
:10A2E000E66AD3E90802B444914228BF1146BCFB98
:10A2F000F0F300FB13C32163E362E06BC4F8348026
:10A30000D208002108F0F4F863680133CDD0A368C7
:10A310000133CAD000220123CDE906230122002007
:10A3200004F1140796462268E36A116A266BCB1A79
:10A3300003EB000CBCFBF1F001FB10C0864210D90E
:10A340004609E16B00F01F0051F8263005FA00F0D5
:10A35000184341F82600D4E90B36116ADDF81CE0F9
:10A36000CB1A7344B3FBF1F201FB1233B3420AD2AE
:10A370005809E16B03F01F0351F8202005FA03F39D
:10A38000134341F8203006AA0FA92046FFF71AFA16
:10A39000002840F0E9804FF00C08129A0CAE23E040
:10A3A0002168109B096A8B4280F0F5810092CDE90B
:10A3B0000168002239462046FEF7DEFF002840F003
:10A3C000D3809DF831209DF832109DF833C0129B48
:10A3D00004320A449DF8301062441A4401F07003BC
:10A3E000102B129200F0C580179B23F00043043B12
:10A3F00002F10C019942D3D9DDE9180E411CCDE9D7
:10A40000060E02D0BEF1FF3F8DD1D4F80C80464637
:10A41000B8F1000F3FF447AFF369DA0340F1288148
:10A420007769002F00F02481D4F800A0DAF81C30FE
:10A43000013FA3F108084745C0F0A881B7FBF8F039
:10A44000013807F079FF0230A7EB8007B7FBF8F778
:10A4500004F11400E16AD4F830C0DAF8202033693E
:10A460000596834606F12C0008EE100A0E4661465A
:10A470009818A0EB060EBEFBF2F002FB10E28A4237
:10A480000BD2E06B4FEA521C02F01F0150F82C2057
:10A4900005FA01F10A4340F82C20002F00F0E68075
:10A4A000DAF8202007F00108C8F1020A93424FEAC7
:10A4B0008A0080F0708109A90022CDE90110009284
:10A4C000594618EE102A2046FEF756FF00284BD1B9
:10A4D0000AF1FF3CD4F800A012E0BEFBF2F302FB4D
:10A4E00013E38B424FF0010012D25E09E16B03F0DF
:10A4F0001F0351F8262009FA03F3134341F82630CD
:10A50000E66ADAF82020099B216BA2EB060E9E4436
:10A510006045E2DB1AAB03EB8C0CA8F102085CF897
:10A52000443C4744A4E72168E26A096A1344B3FB48
:10A53000F1F201FB1233049A1360D4E90C03834255
:10A5400011D0012506E0A26B0133013A8342C4E930
:10A550000D3208D0590903F01F0257F8211005FAEF
:10A5600002F20A42EFD100201BB0BDEC028BBDE825
:10A57000F08F0E9E002E3FF411AFD4F800A0DAF851
:10A580001C20013EA2F1080B5E450AD3B6FBFBF08E
:10A59000013807F0D1FE0230A6EB8003B3FBFBF3DA
:10A5A0001846E16AD4F830C00D9BDAF8202008EE96
:10A5B000107A8E46074661469818A0EB0E0EBEFB39
:10A5C000F2F002FB10E28A420AD25609E06B02F076
:10A5D0001F0250F8261005FA02F20A4340F826201E
:10A5E000002F00F0D580DAF8202007F00106C6F130
:10A5F000020A93424FEA8A0080F0CD8009A9002226
:10A60000CDE90110009218EE101A2046FEF7B4FEB4
:10A610000028A9D10AF1FF3CD4F800A013E0BBFB4D
:10A62000F2F302FB13B38B424FF0010014D24FEA56
:10A63000531EE16B03F01F0351F82E2009FA03F3B8
:10A64000134341F82E30D4F82CE0DAF82020099B8F
:10A65000216BA2EB0E0B9B446045E0DB1AAB03EBD6
:10A660008C0C023E5CF8443C3744A5E7059EF36938
:10A670009B0340F18180376A002F7DD0D4F800A081
:10A68000DAF81C20013FA2F1080847457CD3B7FB4C
:10A69000F8F0013807F050FE0230A7EB8007B7FB57
:10A6A000F8F704F11400E16AD4F830C0DAF8202099
:10A6B000736A0596834606F12C0008EE100A0E46D2
:10A6C00061469818A0EB060EBEFBF2F002FB10E20A
:10A6D0008A420BD2E06B4FEA521C02F01F0150F885
:10A6E0002C2005FA01F10A4340F82C20002F42D01B
:10A6F000DAF8202007F00108C8F1020A93424FEA75
:10A700008A0048D209A90022CDE9011000925946D9
:10A7100018EE102A2046FEF72FFE00287FF424AF03
:10A720000AF1FF3CD4F800A012E0BEFBF2F302FBFA
:10A7300013E38B424FF0010012D25E09E16B03F08C
:10A740001F0351F8262009FA03F3134341F826307A
:10A75000E66ADAF82020099B216BA2EB060E9E44E4
:10A760006045E2DB1AAB03EB8C0CA8F102085CF845
:10A77000443C4744A5E7059E3668002E7FF44CAE66
:10A7800091E56FF01B00EFE600278AE700275FE600
:10A7900018EE107A01E6034B034A0448122107F031
:10A7A000E5FD00BF105A0300445C0300305A03006B
:10A7B0002DE9F04F044687B00F4600F1140905A9B2
:10A7C0002046FFF767FD064640B920680599C36833
:10A7D0009847064630B110F1340FF0D0304607B03C
:10A7E000BDE8F08FBB6A83B307F12C0A35460DF143
:10A7F000130804F1200B13E02268059B126A9342B0
:10A8000047D20122CDE9018200954A4659462046A9
:10A81000FEF714FF002831D1BB6A0135AB4214D9D1
:10A8200022687B6A126A93422DD20122CDE901820D
:10A830000095524649462046FEF79EFD0028DBD093
:10A840000646304607B0BDE8F08F2368A16A9A69D2
:10A85000786B07F025FED4E908122368A06AC7E9DF
:10A860000B12FF219A6907F043FE059B4FF0FF3260
:10A87000304622627B6207B0BDE8F08F10F1340FE2
:10A880009DD00646DDE7064B064A0748122107F031
:10A890006DFD034B054A04489C2107F067FD00BF8E
:10A8A000105A0300445C0300305A0300545C030058
:10A8B0002DE9F04F2DED028BC9B004462C2200216A
:10A8C0001CA807F015FE4FF00043282227A80021FE
:10A8D000249307F00DFE23681B6A01223192002B9E
:10A8E00000F0C98100274FF00C09319B013300F0C3
:10A8F000B18130AA27A92046FEF764FF054600284B
:10A9000040F00C81249B002BC0F20E816368013360
:10A9100000F04E81A368013300F04A8132AE324626
:10A920000CAB25A92046FFF7C3F80028C0F2F5803C
:10A9300000F03E810E9B259A0F982699934200F0D5
:10A9400090818B4200F09381DDE91D51239A26907E
:10A950002068259301320023CDE91D150B95059341
:10A960002392C3680A9198474FF0FF380546F0B12B
:10A9700015F1340F40F0D2800A9BC4F82080012BDF
:10A9800040F279810B9B012B40F275811DA9204675
:10A99000FFF780FC0546002840F0C08020681D9924
:10A9A00001230593C368984705460028E0D123AFEB
:10A9B0000DF1500AA146102239465046CDF850807C
:10A9C00003F070FD59F8202B1D9B126A934280F012
:10A9D00015821026CDE900572A46029649462046A0
:10A9E000FEF72CFE05460028C2D1249B23F000432D
:10A9F000043B102B32D904F1140B3DAF22680B9BA2
:10AA0000126A934280F0F4810122CDE9017200962E
:10AA1000002259462046FEF7AFFC054600287DD1AE
:10AA200001223946504603F03DFD22681D9B126A03
:10AA3000934280F0E3810122CDE9017200962A461B
:10AA400049462046FEF7FAFD0546002890D1249B92
:10AA500023F000430136043B9E42CFD322681D9B66
:10AA6000126A934280F0CA8104220292CDE9006A00
:10AA7000494600222046FEF7E1FD054600287FF406
:10AA800077AF216AC4F814804A1C12D02068A36AE8
:10AA9000826900928568626AA847054600287FF4AB
:10AAA00067AF2368A06A9A69FF2107F021FDC4F807
:10AAB0002080206803699847054600287FF458AF36
:10AAC000249EDDF874B0CDF8F48026F0004604F141
:10AAD0001403043E08EE103A00F0968107460DF18B
:10AAE000400908E00137012249463DA803F0DAFC9D
:10AAF000BE4240F2898123681B6A9B4580F07881C1
:10AB00000123CDE9019318EE101A00975B4600224D
:10AB10002046FEF731FC0028E4D00546284649B01F
:10AB2000BDEC028BBDE8F08F32AE4FF0000832462C
:10AB300027A92046FEF724FFF0B1831CEDD10DF1CB
:10AB40009C0CBCE80F001CAE0FC6BCE80F000FC683
:10AB50009CE8070086E8070023681B6A01379F42CC
:10AB600080F08980309B01337FF4BFAE284649B026
:10AB7000BDEC028BBDE8F08F9DF9CC309DF8CC2068
:10AB8000002BD4DA6368013341D0A36801333ED08F
:10AB900034A92046FEF754FF0028BEDB35D03246EC
:10ABA00027A9204601F0C8F90028C0D00546B5E71E
:10ABB000DDE93050DDE91D21239B1D91CDE92550B4
:10ABC0000133239308911E9209924FF00008012649
:10ABD0002068C3689847054600284FD015F1340F08
:10ABE0009CD1089B4FF0FF32012B226243D9099B75
:10ABF000012B40D91DA92046FFF74CFB0546002834
:10AC00008CD11D994FF00108E2E79DF8CC20DDF8CA
:10AC1000C8E09DF8CFC0CDF8F89002F07F020EF1A9
:10AC20000C0033A9CDE93F198DF8CC2041900123C8
:10AC30003DAA27A92046CDF80C81CDF8F4E0CDF847
:10AC400008C1CDF810C100F0F9F900283FF46FAF4A
:10AC5000054663E70025284649B0BDEC028BBDE8F8
:10AC6000F08F88423FF461AF8B427FF46DAE824239
:10AC70007FF46AAE59E76FF033054FE723AFA24682
:10AC80004FF0FF331022394607A8079303F00AFC60
:10AC90005AF8202B1D9B126A934280F0AF804FF030
:10ACA0001009CDE900572A46CDF8089051462046B4
:10ACB000FEF7C4FC0546002890D1249B23F00043F6
:10ACC000043B102B34D904F1140B10AF2268099BFC
:10ACD000126A934280F08C80CDE90176CDF8009025
:10ACE000002259462046FEF747FB054600287FF420
:10ACF00015AF0122394607A803F0D4FB22681D9B3B
:10AD0000126A93427AD22A46CDE90176CDF80090B4
:10AD100051462046FEF792FC054600287FF45EAFC0
:10AD2000249B23F0004309F10109043B9945CDD34D
:10AD300022681D9B126A934260D2042207A9CDE9C2
:10AD400000910292514600222046FEF777FC05460C
:10AD500000287FF443AF216A4FF0FF37B9426761A3
:10AD600011D02068A36A826900928568626AA84748
:10AD7000054600287FF432AF2368A06A9A69FF2154
:10AD800007F0B6FB2762206803699847054600284C
:10AD90007FF424AF249FDDF874B027F000474FF014
:10ADA000FF3204F11403043F08EE103A109245D02C
:10ADB00081460DF1F40A08E009F10109012251462A
:10ADC00010A803F06FFB4F4538D923681B6A9B45D9
:10ADD0000ED2CDE901A618EE101ACDF800905B4610
:10ADE00000222046FEF7C8FA0028E5D0054695E681
:10ADF0008E4B8F4A8F48122107F0B8FA8B4B8E4A40
:10AE00008C489C2107F0B2FA3D9A149B9A427FF439
:10AE1000B3AD059B002B30D12369002B3FF47EAEF0
:10AE20005C681D9A944271D099681E9881426DD0D9
:10AE300084426BD08A4269D01B68EEE7109A079B68
:10AE40009A427FF4CEAEB8F1000F40F082802369C1
:10AE5000002B3FF463AE5C681D9A944200F0C480FE
:10AE600099681E98814200F0BF80844200F0BC8047
:10AE70008A4200F0B9801B68EAE7636801334ED06C
:10AE8000A36801333DAE0AAF4BD03246394610AB12
:10AE90002046FEF70DFE0028FFF63FAE41D0DDE96B
:10AEA0001D03109F149731460C370C2612909DF805
:10AEB00047001897139311AF15961796199000260F
:10AEC0001B9052460123204616971A9600F0B6F8BA
:10AED00000287FF422AE0A98636898421AD00B9A31
:10AEE000A1688A4216D0884214D0934212D001221F
:10AEF000013384F840208FD0A36801338CD02046E2
:10AF0000FFF7D6FC002887D0054607E65A601E9A50
:10AF10009A6091E7DDE91D32C4E90132E7E73DAE11
:10AF20000AAF394632462046FEF7ECFC0028FFF611
:10AF3000F4AD3FF471AF3146DDE91D600023479069
:10AF40001A462046469600F079F800283FF464AF90
:10AF5000DAE76368013350D0A36801333DAE4DD0CA
:10AF6000324610AB08A92046FEF7A2FD0028FFF6E6
:10AF7000D4AD43D0DDE91D02109B14930C3318931C
:10AF800012900C2311A89DF8477013923146159327
:10AF9000002617931690012314AA204619971B9791
:10AFA0001A9600F04BF800287FF4B7AD0898636854
:10AFB00098421DD0099AA1688A4219D0884217D0B8
:10AFC000934215D00122013384F840203FF43FAF73
:10AFD000A36801333FF43BAF2046FFF769FC00282C
:10AFE0003FF435AF054699E55A601E9A9A6042E7EC
:10AFF000DDE91D32C4E90132E4E73DAE08A932467D
:10B000002046FEF77FFC0028FFF687AD3FF41FAF18
:10B010003146DDE91D60002347901A4620464696DA
:10B0200000F00CF800283FF412AFDBE7105A0300E1
:10B03000445C0300305A0300545C03002DE9F04FD8
:10B040002DED028BCE690D46D1E90141A5B0013647
:10B0500090462A1D69608246EE61AC6008920593B5
:10B0600083B11E46D8F80400D8F80C302A6A1B1A9F
:10B07000022E1A4405D1D8F81C70D8F814603A444E
:10B08000921B2A62DAF80000CDF818800023CDE97F
:10B090000B140993C36898470446E0B114F1340FC8
:10B0A0003DD10B9B4FF0FF32012BCAF8202034D941
:10B0B0000C9B012B31D908995046FFF7EBF8044659
:10B0C00068BBDAF80000696801230993C3689847F0
:10B0D00004460028E2D105F11C07D0464FF0FF33AB
:10B0E0001022394611A8119303F0DCF958F8202BEF
:10B0F0006B68126A934280F00D811026CDE90047FB
:10B100002246029641465046FEF798FA834660B1C1
:10B1100010F1340FC5D0044601E06FF0330420462F
:10B1200025B0BDEC028BBDE8F08F2B6A23F0004305
:10B13000043BB3426BD90AF1140308EE103A3746C8
:10B140000DF1640934E0DAF800200C9B126A934296
:10B1500080F0E6800122CDE9019218EE101A0097E6
:10B1600000225046FEF708F904460028D7D10122F4
:10B17000494611A803F096F9DAF800206B68126AC4
:10B18000934280F0C7800122CDE9019200962246C9
:10B1900041465046FEF752FA044600287FF47EAF3F
:10B1A000013701362B6A23F00043043B9E422ED226
:10B1B000059B5B45C7DD069A4FEA0B1302EB0B11AB
:10B1C000D3580791BB42BED10C4611A8D1E9021257
:10B1D00003F068F9DAF800206B68106AE168A26889
:10B1E000834280F09780CDE90121009600224146FC
:10B1F0005046FEF723FA044600287FF44FAF079B22
:10B200005A68DB680BF1010B17441E44CAE7DAF8F1
:10B2100000206B68126A93427CD2042211A9CDE906
:10B2200000610292414600225046FEF707FA0446AA
:10B2300000287FF433AFDAF820104FF0FF33994243
:10B24000CAF8143019D0DAF80000DAF82830826928
:10B2500000928468DAF82420A047044600287FF48E
:10B260001DAFDAF80030DAF828009A69FF2107F0FC
:10B270003FF94FF0FF33CAF82030DAF800000369D5
:10B280009847044600287FF409AF2B6AD5F804805C
:10B2900023F000434FF0FF32B3F1040919920AF191
:10B2A000140B1DD007460DAE07E0013701223146D1
:10B2B00019A803F0F7F8B94512D0DAF800301B6A84
:10B2C00098452DD20123CDE9016300974346002222
:10B2D00059465046FEF750F80028E6D004461EE7CF
:10B2E000199A119B9A427FF4DCAE099B13BBDAF8E2
:10B2F0001030002B3FF413AF5E686A68964215D099
:10B300009968A868814211D086420FD08A420DD038
:10B310001B68EEE73D4B3E4A3E489C2107F026F86D
:10B320003A4B3D4A3B48122107F020F85A60AA6880
:10B330009A60EDE7DAF80430013347D0DAF80830E4
:10B34000013319AE0BAF43D0324639460DAB5046F0
:10B35000FEF7AEFB0028C1DB3AD0D5E901030D9F13
:10B36000119731460C370C260F909DF83B0015972E
:10B3700010930EAF1296149616900026189011AAEC
:10B380000123504613971796FFF758FE0028A5D1C2
:10B390000B98DAF80430984231D00C9ADAF8081099
:10B3A0008A422CD088422AD0934228D001220133ED
:10B3B0008AF840209BD0DAF80830013397D0504605
:10B3C000FFF776FA002892D00446A8E619AE0BAF34
:10B3D000394632465046FEF795FA0028FFF67EAF12
:10B3E00085D03146D5E90160002323901A465046A6
:10B3F0002296FFF723FE00283FF479AFE4E76B685D
:10B40000CAF80430AA68CAF80820CFE7105A030027
:10B41000545C0300305A0300445C03002DE9F04FF4
:10B420002DED028B0D46BDB0824616461F4601F13A
:10B43000240809E0002B52DA424629465046FEF71E
:10B44000C1F9002840F008817479B179F279DAF80D
:10B4500000002B6A04340C441444C1691C448C421F
:10B46000E8D8B4461E1F4CF8046BE96924974C1CBD
:10B470006F68A96825920C3313442B62C5E9011744
:10B480000C23002221932B1DCDF880C01E962296FE
:10B4900013971291EC611F92239207920693C3684F
:10B4A00098470446002800F0DE8014F1340F65D17F
:10B4B000129B4FF0FF32012BCAF820205CD9139B5E
:10B4C000012B59D906995046FEF7E4FE04460028A0
:10B4D00054D101236968DAF800000793DFE7AC462E
:10B4E000BCE80F0026AC0FC4BCE80F000FC49CE8FA
:10B4F000070084E8070029465046FEF715FC04467D
:10B5000000283BD1DDE92F122B6A69623046191FF2
:10B51000AA6240F8041BF6791794CDE91B4733441F
:10B52000069416916C681A91A968EA691D960C3305
:10B530002B62C5E901140C23013219932B1D1890BD
:10B540000F940E91EA6107934FF00109DAF80000B9
:10B55000C36898470446002800F0AA8014F1340F0D
:10B560000CD10E9B4FF0FF32012BCAF8202003D9DB
:10B570000F9B012B00F2BF806FF0330420463DB0DB
:10B58000BDEC028BBDE8F08FDAF800206B68126A20
:10B59000934280F04C8204220BA9CDE90061029213
:10B5A000414600225046FEF749F804460028D5D10E
:10B5B000DAF820104FF0FF339942CAF8143018D04F
:10B5C000DAF80000DAF82830826900928468DAF844
:10B5D0002420A04704460028C0D1DAF80030DAF869
:10B5E00028009A69FF2106F083FF4FF0FF33CAF865
:10B5F0002030DAF800000369984704460028ADD1EE
:10B600002E6A26F000464FF0FF33321F0C930AF1EA
:10B61000140B6B68059200F0EA81074631AE1C46B8
:10B6200009E0012231460CA802F03CFF059B0137DE
:10B63000BB4200F0DC81DAF800301B6A9C4280F0EB
:10B64000FC81CDE901690097234600225946504606
:10B65000FDF792FE0028E4D0044620463DB0BDEC44
:10B66000028BBDE8F08F05F11C07D0464FF0FF3389
:10B670001022394609A8099302F014FF58F8202B2C
:10B680006B68126A934280F0D2811026CDE90047A0
:10B690002246029641465046FDF7D0FF83460028D9
:10B6A00000F0AA8010F1340F3FF402AF5C4665E76A
:10B6B00005F11C07D0464FF0FF33102239460BA886
:10B6C0000B9302F0EFFE58F8202B6B68126A93423E
:10B6D00080F0AD811026CDE9004722460296414612
:10B6E0005046FDF7ABFF834688B110F1340F3FF4AD
:10B6F00038AF5C4642E707995046FEF7CBFD04465B
:10B7000000287FF43BAF0123696806931EE72B6A8C
:10B7100023F00043043BB3427FF636AF0AF1140333
:10B7200008EE103A374638E0DAF800200F9B126A2C
:10B73000934280F082810CAACDE9007218EE101AB3
:10B74000CDF8089000225046FDF716FE044600286A
:10B750007FF414AF01220CA90BA802F0A3FEDAF8C3
:10B7600000206B68126A934280F061810CAACDE9D7
:10B770000062CDF80890224641465046FDF75EFF34
:10B78000044600287FF4EAAE013701362B6A23F025
:10B790000043043BB3427FF6F7AEBBF1010FC3DCBD
:10B7A00016AA4FEA0B1302EB0B11D3580591BB42BB
:10B7B000BAD10C460BA8D1E9021202F073FEDAF8F6
:10B7C00000206B68106AE168A268834280F02F81D4
:10B7D000CDE901210096002241465046FDF72EFF9B
:10B7E000044600287FF4BAAE059B5A68DB680BF16B
:10B7F000010B17441E44C9E72B6A23F00043043BA6
:10B80000B3426CD90AF1140308EE103A37460DF131
:10B81000280935E0DAF80020139B126A934280F081
:10B820000C810122CDE9019218EE101A0097002236
:10B830005046FDF7A1FD044600287FF49FAE01228B
:10B84000494609A802F02EFEDAF800206B68126A59
:10B85000934280F0EC800122CDE9019200962246CD
:10B8600041465046FDF7EAFE044600287FF41DAE2F
:10B87000013701362B6A23F00043043BB3422ED933
:10B88000BBF1010FC6DC1EAA4FEA0B1302EB0B1132
:10B89000D3580591BB42BDD10C4609A8D1E902128B
:10B8A00002F000FEDAF800206B68106AE168A26816
:10B8B000834280F0BC80CDE9012100960022414600
:10B8C0005046FDF7BBFE044600287FF4EEAD059B15
:10B8D0005A68DB680BF1010B17441E44CAE7DAF81B
:10B8E00000206B68126A934280F0A180042209A9AB
:10B8F000CDE900610292414600225046FDF79EFECE
:10B90000044600287FF4D1ADDAF820104FF0FF3361
:10B910009942CAF8143019D0DAF80000DAF8283061
:10B92000826900928468DAF82420A047044600283F
:10B930007FF4BBADDAF80030DAF828009A69FF210D
:10B9400006F0D6FD4FF0FF33CAF82030DAF80000D9
:10B9500003699847044600287FF4A7AD2A6AD5F802
:10B9600004B022F000424FF0FF33171F0A930AF190
:10B9700014091ED006460DF1C40807E00136012265
:10B9800041460AA802F08EFDB74212D0DAF8003024
:10B990001B6A9B4551D20123CDE9018300965B468A
:10B9A000002249465046FDF7E7FC0028E6D0044651
:10B9B00053E6DDE909329A427FF47AAD079B002B0A
:10B9C00041D1DAF81030002B3FF4D8AD5E686A68D8
:10B9D000964200F089809968A868814200F08480CE
:10B9E000864200F081808A427ED01B68EBE7DDE969
:10B9F0000B329A427FF4B5AD069B002B40F06E816E
:10BA0000DAF81040002C00F0948060686B6898426F
:10BA100000F0B781A268A9688A4200F0B28188422A
:10BA200000F0AF81934200F0AC812468EAE7A74BB5
:10BA3000A74AA8489C2106F099FCA44BA64AA54811
:10BA4000122106F093FCDAF80430013357D0DAF80B
:10BA50000830013331AE12AF53D03246394616ABFF
:10BA60005046FEF725F80028FFF6F6AD49D0D5E997
:10BA70000102169B26930C332A9318900C2317A8C7
:10BA80009DF85F70199231462793002629932890DC
:10BA9000012326AA50462B972D972C96FFF7CEFA16
:10BAA00000287FF4D9AD1298DAF8043098421FD0FC
:10BAB000139ADAF808108A421AD0884218D09342B2
:10BAC00016D0012201338AF840203FF47AAFDAF829
:10BAD000083001333FF475AF5046FEF7E9FE002809
